:0C0000000C942A000C9400000C940000EA
:10000C000C9400000C9400000C9400000C94000064
:10001C000C9400000C9400000C9400000C94000054
:10002C000C9445000C9400000C9400000C940000FF
:10003C000C9400000C9400000C9400000C94000034
:10004C000C9400000C940000F894EE27ECBBF1E04B
:10005C00FBBFEBBFE5BF8DE0A2E0BB27ED938A951C
:10006C00E9F780E098E0A0E6ED930197E9F7EFE57A
:10007C00EDBFE8E0EEBFC0E6D2E00C945600EA9388
:10008C00EFB75394EFBFE9911895E0E0E2BFE3B707
:10009C00E260E3BFE9B7E160E9BF789455240895C5
:1000AC005524E0E0EABBEFEFEBBBE0E0E7BBEFEFA2
:1000BC00E8BBE7E0E4BBEFEFE5BBE0E0E1BBEFEF73
:1000CC00E2BBE0E0E3BFE2BFECBFEFBDEEBDEDBDD8
:1000DC00ECBDE7BDE6BDEBBDEABDE9BDE8BDE2BDEB
:1000EC00E5BDE4BDE3BDE1E0E9BFE0E0E5BFE4BFB1
:1000FC00EAB9E0E8E8B9E0E0E0BFE6B9EDB9E6BF9F
:10010C00A89AA998AA98C1DFE1E05E1658F0E2B768
:10011C00E53F40F05524E0E0E2BFAA9B02C0AA985C
:10012C0001C0AA9AC89903C0B0DFA998A89AC99B24
:10013C00A898CA9902C0A99A01C0A998E5CFFFCF87
:00000001FF
